{
  "_format": "hh-sol-artifact-1",
  "contractName": "MyEpicNFT",
  "sourceName": "contracts/MyEpicNFT.sol",
  "abi": [
    {
      "inputs": [],
      "stateMutability": "nonpayable",
      "type": "constructor"
    },
    {
      "anonymous": false,
      "inputs": [
        {
          "indexed": true,
          "internalType": "address",
          "name": "owner",
          "type": "address"
        },
        {
          "indexed": true,
          "internalType": "address",
          "name": "approved",
          "type": "address"
        },
        {
          "indexed": true,
          "internalType": "uint256",
          "name": "tokenId",
          "type": "uint256"
        }
      ],
      "name": "Approval",
      "type": "event"
    },
    {
      "anonymous": false,
      "inputs": [
        {
          "indexed": true,
          "internalType": "address",
          "name": "owner",
          "type": "address"
        },
        {
          "indexed": true,
          "internalType": "address",
          "name": "operator",
          "type": "address"
        },
        {
          "indexed": false,
          "internalType": "bool",
          "name": "approved",
          "type": "bool"
        }
      ],
      "name": "ApprovalForAll",
      "type": "event"
    },
    {
      "anonymous": false,
      "inputs": [
        {
          "indexed": true,
          "internalType": "address",
          "name": "from",
          "type": "address"
        },
        {
          "indexed": true,
          "internalType": "address",
          "name": "to",
          "type": "address"
        },
        {
          "indexed": true,
          "internalType": "uint256",
          "name": "tokenId",
          "type": "uint256"
        }
      ],
      "name": "Transfer",
      "type": "event"
    },
    {
      "anonymous": false,
      "inputs": [
        {
          "indexed": false,
          "internalType": "address",
          "name": "sender",
          "type": "address"
        },
        {
          "indexed": false,
          "internalType": "uint256",
          "name": "tokenId",
          "type": "uint256"
        }
      ],
      "name": "newEpicNftMinted",
      "type": "event"
    },
    {
      "inputs": [
        {
          "internalType": "address",
          "name": "to",
          "type": "address"
        },
        {
          "internalType": "uint256",
          "name": "tokenId",
          "type": "uint256"
        }
      ],
      "name": "approve",
      "outputs": [],
      "stateMutability": "nonpayable",
      "type": "function"
    },
    {
      "inputs": [
        {
          "internalType": "address",
          "name": "owner",
          "type": "address"
        }
      ],
      "name": "balanceOf",
      "outputs": [
        {
          "internalType": "uint256",
          "name": "",
          "type": "uint256"
        }
      ],
      "stateMutability": "view",
      "type": "function"
    },
    {
      "inputs": [
        {
          "internalType": "uint256",
          "name": "tokenId",
          "type": "uint256"
        }
      ],
      "name": "getApproved",
      "outputs": [
        {
          "internalType": "address",
          "name": "",
          "type": "address"
        }
      ],
      "stateMutability": "view",
      "type": "function"
    },
    {
      "inputs": [
        {
          "internalType": "address",
          "name": "owner",
          "type": "address"
        }
      ],
      "name": "getTotalNFTsMintedSoFar",
      "outputs": [
        {
          "internalType": "uint256",
          "name": "",
          "type": "uint256"
        }
      ],
      "stateMutability": "view",
      "type": "function"
    },
    {
      "inputs": [
        {
          "internalType": "address",
          "name": "owner",
          "type": "address"
        },
        {
          "internalType": "address",
          "name": "operator",
          "type": "address"
        }
      ],
      "name": "isApprovedForAll",
      "outputs": [
        {
          "internalType": "bool",
          "name": "",
          "type": "bool"
        }
      ],
      "stateMutability": "view",
      "type": "function"
    },
    {
      "inputs": [],
      "name": "makeAnEpicNFT",
      "outputs": [],
      "stateMutability": "nonpayable",
      "type": "function"
    },
    {
      "inputs": [],
      "name": "name",
      "outputs": [
        {
          "internalType": "string",
          "name": "",
          "type": "string"
        }
      ],
      "stateMutability": "view",
      "type": "function"
    },
    {
      "inputs": [
        {
          "internalType": "uint256",
          "name": "tokenId",
          "type": "uint256"
        }
      ],
      "name": "ownerOf",
      "outputs": [
        {
          "internalType": "address",
          "name": "",
          "type": "address"
        }
      ],
      "stateMutability": "view",
      "type": "function"
    },
    {
      "inputs": [
        {
          "internalType": "address",
          "name": "from",
          "type": "address"
        },
        {
          "internalType": "address",
          "name": "to",
          "type": "address"
        },
        {
          "internalType": "uint256",
          "name": "tokenId",
          "type": "uint256"
        }
      ],
      "name": "safeTransferFrom",
      "outputs": [],
      "stateMutability": "nonpayable",
      "type": "function"
    },
    {
      "inputs": [
        {
          "internalType": "address",
          "name": "from",
          "type": "address"
        },
        {
          "internalType": "address",
          "name": "to",
          "type": "address"
        },
        {
          "internalType": "uint256",
          "name": "tokenId",
          "type": "uint256"
        },
        {
          "internalType": "bytes",
          "name": "_data",
          "type": "bytes"
        }
      ],
      "name": "safeTransferFrom",
      "outputs": [],
      "stateMutability": "nonpayable",
      "type": "function"
    },
    {
      "inputs": [
        {
          "internalType": "address",
          "name": "operator",
          "type": "address"
        },
        {
          "internalType": "bool",
          "name": "approved",
          "type": "bool"
        }
      ],
      "name": "setApprovalForAll",
      "outputs": [],
      "stateMutability": "nonpayable",
      "type": "function"
    },
    {
      "inputs": [
        {
          "internalType": "bytes4",
          "name": "interfaceId",
          "type": "bytes4"
        }
      ],
      "name": "supportsInterface",
      "outputs": [
        {
          "internalType": "bool",
          "name": "",
          "type": "bool"
        }
      ],
      "stateMutability": "view",
      "type": "function"
    },
    {
      "inputs": [],
      "name": "symbol",
      "outputs": [
        {
          "internalType": "string",
          "name": "",
          "type": "string"
        }
      ],
      "stateMutability": "view",
      "type": "function"
    },
    {
      "inputs": [
        {
          "internalType": "uint256",
          "name": "tokenId",
          "type": "uint256"
        }
      ],
      "name": "tokenURI",
      "outputs": [
        {
          "internalType": "string",
          "name": "",
          "type": "string"
        }
      ],
      "stateMutability": "view",
      "type": "function"
    },
    {
      "inputs": [
        {
          "internalType": "address",
          "name": "from",
          "type": "address"
        },
        {
          "internalType": "address",
          "name": "to",
          "type": "address"
        },
        {
          "internalType": "uint256",
          "name": "tokenId",
          "type": "uint256"
        }
      ],
      "name": "transferFrom",
      "outputs": [],
      "stateMutability": "nonpayable",
      "type": "function"
    }
  ],
  "bytecode": "0x608060405260405180610100016040528060d381526020016200461660d39139600990805190602001906200003692919062000760565b50604051806080016040528060578152602001620046e960579139600a90805190602001906200006892919062000760565b506040518060c001604052806040518060400160405280600381526020017f726564000000000000000000000000000000000000000000000000000000000081525081526020016040518060400160405280600781526020017f233038433241380000000000000000000000000000000000000000000000000081525081526020016040518060400160405280600581526020017f626c61636b00000000000000000000000000000000000000000000000000000081525081526020016040518060400160405280600681526020017f79656c6c6f77000000000000000000000000000000000000000000000000000081525081526020016040518060400160405280600481526020017f626c75650000000000000000000000000000000000000000000000000000000081525081526020016040518060400160405280600581526020017f677265656e000000000000000000000000000000000000000000000000000000815250815250600b906006620001e6929190620007f1565b506040518060e001604052806040518060400160405280600381526020017f4b696d000000000000000000000000000000000000000000000000000000000081525081526020016040518060400160405280600381526020017f4c6565000000000000000000000000000000000000000000000000000000000081525081526020016040518060400160405280600381526020017f50616b000000000000000000000000000000000000000000000000000000000081525081526020016040518060400160405280600481526020017f43686f690000000000000000000000000000000000000000000000000000000081525081526020016040518060400160405280600381526020017f48616e000000000000000000000000000000000000000000000000000000000081525081526020016040518060400160405280600281526020017f416e00000000000000000000000000000000000000000000000000000000000081525081526020016040518060400160405280600581526020017f43686f6e67000000000000000000000000000000000000000000000000000000815250815250600c9060076200039f92919062000858565b506040518061010001604052806040518060400160405280600481526020017f43686f6c0000000000000000000000000000000000000000000000000000000081525081526020016040518060400160405280600581526020017f4b77616e6700000000000000000000000000000000000000000000000000000081525081526020016040518060400160405280600481526020017f59616e670000000000000000000000000000000000000000000000000000000081525081526020016040518060400160405280600581526020017f43686f6e6700000000000000000000000000000000000000000000000000000081525081526020016040518060400160405280600381526020017f48756e000000000000000000000000000000000000000000000000000000000081525081526020016040518060400160405280600581526020017f4d796f6e6700000000000000000000000000000000000000000000000000000081525081526020016040518060400160405280600381526020017f47756d000000000000000000000000000000000000000000000000000000000081525081526020016040518060400160405280600581526020017f4368616e67000000000000000000000000000000000000000000000000000000815250815250600d90600862000594929190620008bf565b50348015620005a257600080fd5b506040518060400160405280600981526020017f5371756172654e465400000000000000000000000000000000000000000000008152506040518060400160405280600681526020017f535155415245000000000000000000000000000000000000000000000000000081525081600090805190602001906200062792919062000760565b5080600190805190602001906200064092919062000760565b5050506200068e6040518060400160405280601d81526020017f54686973206973206d79204e46542070726f6a6563742e2057686f61210000008152506200069460201b62000e5e1760201c565b62000ae0565b6200073481604051602401620006ab9190620009f4565b6040516020818303038152906040527f41304fac000000000000000000000000000000000000000000000000000000007bffffffffffffffffffffffffffffffffffffffffffffffffffffffff19166020820180517bffffffffffffffffffffffffffffffffffffffffffffffffffffffff83818316178352505050506200073760201b60201c565b50565b60008151905060006a636f6e736f6c652e6c6f679050602083016000808483855afa5050505050565b8280546200076e9062000a6a565b90600052602060002090601f016020900481019282620007925760008555620007de565b82601f10620007ad57805160ff1916838001178555620007de565b82800160010185558215620007de579182015b82811115620007dd578251825591602001919060010190620007c0565b5b509050620007ed919062000926565b5090565b82805482825590600052602060002090810192821562000845579160200282015b82811115620008445782518290805190602001906200083392919062000760565b509160200191906001019062000812565b5b50905062000854919062000945565b5090565b828054828255906000526020600020908101928215620008ac579160200282015b82811115620008ab5782518290805190602001906200089a92919062000760565b509160200191906001019062000879565b5b509050620008bb919062000945565b5090565b82805482825590600052602060002090810192821562000913579160200282015b82811115620009125782518290805190602001906200090192919062000760565b5091602001919060010190620008e0565b5b50905062000922919062000945565b5090565b5b808211156200094157600081600090555060010162000927565b5090565b5b808211156200096957600081816200095f91906200096d565b5060010162000946565b5090565b5080546200097b9062000a6a565b6000825580601f106200098f5750620009b0565b601f016020900490600052602060002090810190620009af919062000926565b5b50565b6000620009c08262000a18565b620009cc818562000a23565b9350620009de81856020860162000a34565b620009e98162000acf565b840191505092915050565b6000602082019050818103600083015262000a108184620009b3565b905092915050565b600081519050919050565b600082825260208201905092915050565b60005b8381101562000a5457808201518184015260208101905062000a37565b8381111562000a64576000848401525b50505050565b6000600282049050600182168062000a8357607f821691505b6020821081141562000a9a5762000a9962000aa0565b5b50919050565b7f4e487b7100000000000000000000000000000000000000000000000000000000600052602260045260246000fd5b6000601f19601f8301169050919050565b613b268062000af06000396000f3fe608060405234801561001057600080fd5b50600436106100f55760003560e01c806370a0823111610097578063b88d4fde11610066578063b88d4fde14610296578063c87b56dd146102b2578063de9d132f146102e2578063e985e9c5146102ec576100f5565b806370a08231146101fc57806395d89b411461022c57806396ec81b61461024a578063a22cb4651461027a576100f5565b8063095ea7b3116100d3578063095ea7b31461017857806323b872dd1461019457806342842e0e146101b05780636352211e146101cc576100f5565b806301ffc9a7146100fa57806306fdde031461012a578063081812fc14610148575b600080fd5b610114600480360381019061010f91906125ad565b61031c565b6040516101219190612cd0565b60405180910390f35b6101326103fe565b60405161013f9190612ceb565b60405180910390f35b610162600480360381019061015d91906125ff565b610490565b60405161016f9190612c40565b60405180910390f35b610192600480360381019061018d9190612571565b610515565b005b6101ae60048036038101906101a9919061246b565b61062d565b005b6101ca60048036038101906101c5919061246b565b61068d565b005b6101e660048036038101906101e191906125ff565b6106ad565b6040516101f39190612c40565b60405180910390f35b61021660048036038101906102119190612406565b61075f565b6040516102239190612f6b565b60405180910390f35b610234610817565b6040516102419190612ceb565b60405180910390f35b610264600480360381019061025f9190612406565b6108a9565b6040516102719190612f6b565b60405180910390f35b610294600480360381019061028f9190612535565b6108f2565b005b6102b060048036038101906102ab91906124ba565b610908565b005b6102cc60048036038101906102c791906125ff565b61096a565b6040516102d99190612ceb565b60405180910390f35b6102ea610abc565b005b6103066004803603810190610301919061242f565b610dca565b6040516103139190612cd0565b60405180910390f35b60007f80ac58cd000000000000000000000000000000000000000000000000000000007bffffffffffffffffffffffffffffffffffffffffffffffffffffffff1916827bffffffffffffffffffffffffffffffffffffffffffffffffffffffff191614806103e757507f5b5e139f000000000000000000000000000000000000000000000000000000007bffffffffffffffffffffffffffffffffffffffffffffffffffffffff1916827bffffffffffffffffffffffffffffffffffffffffffffffffffffffff1916145b806103f757506103f682610ef7565b5b9050919050565b60606000805461040d906131ff565b80601f0160208091040260200160405190810160405280929190818152602001828054610439906131ff565b80156104865780601f1061045b57610100808354040283529160200191610486565b820191906000526020600020905b81548152906001019060200180831161046957829003601f168201915b5050505050905090565b600061049b82610f61565b6104da576040517f08c379a00000000000000000000000000000000000000000000000000000000081526004016104d190612eab565b60405180910390fd5b6004600083815260200190815260200160002060009054906101000a900473ffffffffffffffffffffffffffffffffffffffff169050919050565b6000610520826106ad565b90508073ffffffffffffffffffffffffffffffffffffffff168373ffffffffffffffffffffffffffffffffffffffff161415610591576040517f08c379a000000000000000000000000000000000000000000000000000000000815260040161058890612f0b565b60405180910390fd5b8073ffffffffffffffffffffffffffffffffffffffff166105b0610fcd565b73ffffffffffffffffffffffffffffffffffffffff1614806105df57506105de816105d9610fcd565b610dca565b5b61061e576040517f08c379a000000000000000000000000000000000000000000000000000000000815260040161061590612deb565b60405180910390fd5b6106288383610fd5565b505050565b61063e610638610fcd565b8261108e565b61067d576040517f08c379a000000000000000000000000000000000000000000000000000000000815260040161067490612f4b565b60405180910390fd5b61068883838361116c565b505050565b6106a883838360405180602001604052806000815250610908565b505050565b6000806002600084815260200190815260200160002060009054906101000a900473ffffffffffffffffffffffffffffffffffffffff169050600073ffffffffffffffffffffffffffffffffffffffff168173ffffffffffffffffffffffffffffffffffffffff161415610756576040517f08c379a000000000000000000000000000000000000000000000000000000000815260040161074d90612e2b565b60405180910390fd5b80915050919050565b60008073ffffffffffffffffffffffffffffffffffffffff168273ffffffffffffffffffffffffffffffffffffffff1614156107d0576040517f08c379a00000000000000000000000000000000000000000000000000000000081526004016107c790612e0b565b60405180910390fd5b600360008373ffffffffffffffffffffffffffffffffffffffff1673ffffffffffffffffffffffffffffffffffffffff168152602001908152602001600020549050919050565b606060018054610826906131ff565b80601f0160208091040260200160405190810160405280929190818152602001828054610852906131ff565b801561089f5780601f106108745761010080835404028352916020019161089f565b820191906000526020600020905b81548152906001019060200180831161088257829003601f168201915b5050505050905090565b6000600760008373ffffffffffffffffffffffffffffffffffffffff1673ffffffffffffffffffffffffffffffffffffffff168152602001908152602001600020549050919050565b6109046108fd610fcd565b83836113c8565b5050565b610919610913610fcd565b8361108e565b610958576040517f08c379a000000000000000000000000000000000000000000000000000000000815260040161094f90612f4b565b60405180910390fd5b61096484848484611535565b50505050565b606061097582610f61565b6109b4576040517f08c379a00000000000000000000000000000000000000000000000000000000081526004016109ab90612e8b565b60405180910390fd5b60006006600084815260200190815260200160002080546109d4906131ff565b80601f0160208091040260200160405190810160405280929190818152602001828054610a00906131ff565b8015610a4d5780601f10610a2257610100808354040283529160200191610a4d565b820191906000526020600020905b815481529060010190602001808311610a3057829003601f168201915b505050505090506000610a5e611591565b9050600081511415610a74578192505050610ab7565b600082511115610aa9578082604051602001610a91929190612af9565b60405160208183030381529060405292505050610ab7565b610ab2846115a8565b925050505b919050565b6032600760003373ffffffffffffffffffffffffffffffffffffffff1673ffffffffffffffffffffffffffffffffffffffff1681526020019081526020016000205410610b3e576040517f08c379a0000000000000000000000000000000000000000000000000000000008152600401610b3590612f2b565b60405180910390fd5b6000610b4a600861164f565b90506000610b578261165d565b90506000610b6483611778565b90506000610b7184611892565b905060008282604051602001610b88929190612af9565b60405160208183030381529060405290506000600985600a8686604051602001610bb6959493929190612b1d565b6040516020818303038152906040529050610c056040518060400160405280601e81526020017f2d2d2d2d2d2d2d2d2d2d2d2d2d2d2d2d2d2d2d2d2d2d2d2d2d2d2d2d2d2d0000815250610e5e565b610c0e81610e5e565b610c4c6040518060400160405280601e81526020017f2d2d2d2d2d2d2d2d2d2d2d2d2d2d2d2d2d2d2d2d2d2d2d2d2d2d2d2d2d2d0000815250610e5e565b6000610c8083610c5b846119ac565b604051602001610c6c929190612bb7565b6040516020818303038152906040526119ac565b9050600081604051602001610c959190612bfc565b6040516020818303038152906040529050610cc7604051806060016040528060258152602001613a6760259139610e5e565b610cd081610e5e565b610cf1604051806060016040528060258152602001613a6760259139610e5e565b610cfb3389611b6a565b610d058882611b88565b610d28604051806060016040528060258152602001613a8c602591398933611bfc565b7f6f7cc39c2501a47a177fd5be282deb7b4074f6244d33b05e8bba5ad9824700ee3389604051610d59929190612ca7565b60405180910390a1610d6b6008611c9b565b600760003373ffffffffffffffffffffffffffffffffffffffff1673ffffffffffffffffffffffffffffffffffffffff1681526020019081526020016000206000815480929190610dbb90613262565b91905055505050505050505050565b6000600560008473ffffffffffffffffffffffffffffffffffffffff1673ffffffffffffffffffffffffffffffffffffffff16815260200190815260200160002060008373ffffffffffffffffffffffffffffffffffffffff1673ffffffffffffffffffffffffffffffffffffffff16815260200190815260200160002060009054906101000a900460ff16905092915050565b610ef481604051602401610e729190612ceb565b6040516020818303038152906040527f41304fac000000000000000000000000000000000000000000000000000000007bffffffffffffffffffffffffffffffffffffffffffffffffffffffff19166020820180517bffffffffffffffffffffffffffffffffffffffffffffffffffffffff8381831617835250505050611cb1565b50565b60007f01ffc9a7000000000000000000000000000000000000000000000000000000007bffffffffffffffffffffffffffffffffffffffffffffffffffffffff1916827bffffffffffffffffffffffffffffffffffffffffffffffffffffffff1916149050919050565b60008073ffffffffffffffffffffffffffffffffffffffff166002600084815260200190815260200160002060009054906101000a900473ffffffffffffffffffffffffffffffffffffffff1673ffffffffffffffffffffffffffffffffffffffff1614159050919050565b600033905090565b816004600083815260200190815260200160002060006101000a81548173ffffffffffffffffffffffffffffffffffffffff021916908373ffffffffffffffffffffffffffffffffffffffff160217905550808273ffffffffffffffffffffffffffffffffffffffff16611048836106ad565b73ffffffffffffffffffffffffffffffffffffffff167f8c5be1e5ebec7d5bd14f71427d1e84f3dd0314c0f7b2291e5b200ac8c7c3b92560405160405180910390a45050565b600061109982610f61565b6110d8576040517f08c379a00000000000000000000000000000000000000000000000000000000081526004016110cf90612dcb565b60405180910390fd5b60006110e3836106ad565b90508073ffffffffffffffffffffffffffffffffffffffff168473ffffffffffffffffffffffffffffffffffffffff16148061115257508373ffffffffffffffffffffffffffffffffffffffff1661113a84610490565b73ffffffffffffffffffffffffffffffffffffffff16145b8061116357506111628185610dca565b5b91505092915050565b8273ffffffffffffffffffffffffffffffffffffffff1661118c826106ad565b73ffffffffffffffffffffffffffffffffffffffff16146111e2576040517f08c379a00000000000000000000000000000000000000000000000000000000081526004016111d990612ecb565b60405180910390fd5b600073ffffffffffffffffffffffffffffffffffffffff168273ffffffffffffffffffffffffffffffffffffffff161415611252576040517f08c379a000000000000000000000000000000000000000000000000000000000815260040161124990612d8b565b60405180910390fd5b61125d838383611cda565b611268600082610fd5565b6001600360008573ffffffffffffffffffffffffffffffffffffffff1673ffffffffffffffffffffffffffffffffffffffff16815260200190815260200160002060008282546112b89190613115565b925050819055506001600360008473ffffffffffffffffffffffffffffffffffffffff1673ffffffffffffffffffffffffffffffffffffffff168152602001908152602001600020600082825461130f9190613034565b92505081905550816002600083815260200190815260200160002060006101000a81548173ffffffffffffffffffffffffffffffffffffffff021916908373ffffffffffffffffffffffffffffffffffffffff160217905550808273ffffffffffffffffffffffffffffffffffffffff168473ffffffffffffffffffffffffffffffffffffffff167fddf252ad1be2c89b69c2b068fc378daa952ba7f163c4a11628f55a4df523b3ef60405160405180910390a4505050565b8173ffffffffffffffffffffffffffffffffffffffff168373ffffffffffffffffffffffffffffffffffffffff161415611437576040517f08c379a000000000000000000000000000000000000000000000000000000000815260040161142e90612dab565b60405180910390fd5b80600560008573ffffffffffffffffffffffffffffffffffffffff1673ffffffffffffffffffffffffffffffffffffffff16815260200190815260200160002060008473ffffffffffffffffffffffffffffffffffffffff1673ffffffffffffffffffffffffffffffffffffffff16815260200190815260200160002060006101000a81548160ff0219169083151502179055508173ffffffffffffffffffffffffffffffffffffffff168373ffffffffffffffffffffffffffffffffffffffff167f17307eab39ab6107e8899845ad3d59bd9653f200f220920489ca2b5937696c31836040516115289190612cd0565b60405180910390a3505050565b61154084848461116c565b61154c84848484611cdf565b61158b576040517f08c379a000000000000000000000000000000000000000000000000000000000815260040161158290612d4b565b60405180910390fd5b50505050565b606060405180602001604052806000815250905090565b60606115b382610f61565b6115f2576040517f08c379a00000000000000000000000000000000000000000000000000000000081526004016115e990612eeb565b60405180910390fd5b60006115fc611591565b9050600081511161161c5760405180602001604052806000815250611647565b8061162684611e76565b604051602001611637929190612af9565b6040516020818303038152906040525b915050919050565b600081600001549050919050565b6060600061169161166d84611e76565b60405160200161167d9190612b95565b604051602081830303815290604052612023565b9050600d600b80549050826116a691906132ab565b815481106116dd577f4e487b7100000000000000000000000000000000000000000000000000000000600052603260045260246000fd5b9060005260206000200180546116f2906131ff565b80601f016020809104026020016040519081016040528092919081815260200182805461171e906131ff565b801561176b5780601f106117405761010080835404028352916020019161176b565b820191906000526020600020905b81548152906001019060200180831161174e57829003601f168201915b5050505050915050919050565b606060006117ac61178884611e76565b6040516020016117989190612b73565b604051602081830303815290604052612023565b9050600c8080549050826117c091906132ab565b815481106117f7577f4e487b7100000000000000000000000000000000000000000000000000000000600052603260045260246000fd5b90600052602060002001805461180c906131ff565b80601f0160208091040260200160405190810160405280929190818152602001828054611838906131ff565b80156118855780601f1061185a57610100808354040283529160200191611885565b820191906000526020600020905b81548152906001019060200180831161186857829003601f168201915b5050505050915050919050565b606060006118c66118a284611e76565b6040516020016118b29190612c1e565b604051602081830303815290604052612023565b9050600d8080549050826118da91906132ab565b81548110611911577f4e487b7100000000000000000000000000000000000000000000000000000000600052603260045260246000fd5b906000526020600020018054611926906131ff565b80601f0160208091040260200160405190810160405280929190818152602001828054611952906131ff565b801561199f5780601f106119745761010080835404028352916020019161199f565b820191906000526020600020905b81548152906001019060200180831161198257829003601f168201915b5050505050915050919050565b606060008251905060008114156119d55760405180602001604052806000815250915050611b65565b600060036002836119e69190613034565b6119f0919061308a565b60046119fc91906130bb565b90506000602082611a0d9190613034565b67ffffffffffffffff811115611a4c577f4e487b7100000000000000000000000000000000000000000000000000000000600052604160045260246000fd5b6040519080825280601f01601f191660200182016040528015611a7e5781602001600182028036833780820191505090505b5090506000604051806060016040528060408152602001613ab1604091399050600181016020830160005b86811015611b225760038101905062ffffff818a015116603f8160121c168401518060081b905060ff603f83600c1c1686015116810190508060081b905060ff603f8360061c1686015116810190508060081b905060ff603f831686015116810190508060e01b90508084526004840193505050611aa9565b506003860660018114611b3c5760028114611b4c57611b57565b613d3d60f01b6002830352611b57565b603d60f81b60018303525b508484525050819450505050505b919050565b611b84828260405180602001604052806000815250612056565b5050565b611b9182610f61565b611bd0576040517f08c379a0000000000000000000000000000000000000000000000000000000008152600401611bc790612e4b565b60405180910390fd5b80600660008481526020019081526020016000209080519060200190611bf7929190612292565b505050565b611c96838383604051602401611c1493929190612d0d565b6040516020818303038152906040527fe3849f79000000000000000000000000000000000000000000000000000000007bffffffffffffffffffffffffffffffffffffffffffffffffffffffff19166020820180517bffffffffffffffffffffffffffffffffffffffffffffffffffffffff8381831617835250505050611cb1565b505050565b6001816000016000828254019250508190555050565b60008151905060006a636f6e736f6c652e6c6f679050602083016000808483855afa5050505050565b505050565b6000611d008473ffffffffffffffffffffffffffffffffffffffff166120b1565b15611e69578373ffffffffffffffffffffffffffffffffffffffff1663150b7a02611d29610fcd565b8786866040518563ffffffff1660e01b8152600401611d4b9493929190612c5b565b602060405180830381600087803b158015611d6557600080fd5b505af1925050508015611d9657506040513d601f19601f82011682018060405250810190611d9391906125d6565b60015b611e19573d8060008114611dc6576040519150601f19603f3d011682016040523d82523d6000602084013e611dcb565b606091505b50600081511415611e11576040517f08c379a0000000000000000000000000000000000000000000000000000000008152600401611e0890612d4b565b60405180910390fd5b805181602001fd5b63150b7a0260e01b7bffffffffffffffffffffffffffffffffffffffffffffffffffffffff1916817bffffffffffffffffffffffffffffffffffffffffffffffffffffffff191614915050611e6e565b600190505b949350505050565b60606000821415611ebe576040518060400160405280600181526020017f3000000000000000000000000000000000000000000000000000000000000000815250905061201e565b600082905060005b60008214611ef0578080611ed990613262565b915050600a82611ee9919061308a565b9150611ec6565b60008167ffffffffffffffff811115611f32577f4e487b7100000000000000000000000000000000000000000000000000000000600052604160045260246000fd5b6040519080825280601f01601f191660200182016040528015611f645781602001600182028036833780820191505090505b5090505b6000851461201757600182611f7d9190613115565b9150600a85611f8c91906132ab565b6030611f989190613034565b60f81b818381518110611fd4577f4e487b7100000000000000000000000000000000000000000000000000000000600052603260045260246000fd5b60200101907effffffffffffffffffffffffffffffffffffffffffffffffffffffffffffff1916908160001a905350600a85612010919061308a565b9450611f68565b8093505050505b919050565b6000816040516020016120369190612ae2565b6040516020818303038152906040528051906020012060001c9050919050565b61206083836120c4565b61206d6000848484611cdf565b6120ac576040517f08c379a00000000000000000000000000000000000000000000000000000000081526004016120a390612d4b565b60405180910390fd5b505050565b600080823b905060008111915050919050565b600073ffffffffffffffffffffffffffffffffffffffff168273ffffffffffffffffffffffffffffffffffffffff161415612134576040517f08c379a000000000000000000000000000000000000000000000000000000000815260040161212b90612e6b565b60405180910390fd5b61213d81610f61565b1561217d576040517f08c379a000000000000000000000000000000000000000000000000000000000815260040161217490612d6b565b60405180910390fd5b61218960008383611cda565b6001600360008473ffffffffffffffffffffffffffffffffffffffff1673ffffffffffffffffffffffffffffffffffffffff16815260200190815260200160002060008282546121d99190613034565b92505081905550816002600083815260200190815260200160002060006101000a81548173ffffffffffffffffffffffffffffffffffffffff021916908373ffffffffffffffffffffffffffffffffffffffff160217905550808273ffffffffffffffffffffffffffffffffffffffff16600073ffffffffffffffffffffffffffffffffffffffff167fddf252ad1be2c89b69c2b068fc378daa952ba7f163c4a11628f55a4df523b3ef60405160405180910390a45050565b82805461229e906131ff565b90600052602060002090601f0160209004810192826122c05760008555612307565b82601f106122d957805160ff1916838001178555612307565b82800160010185558215612307579182015b828111156123065782518255916020019190600101906122eb565b5b5090506123149190612318565b5090565b5b80821115612331576000816000905550600101612319565b5090565b600061234861234384612fab565b612f86565b90508281526020810184848401111561236057600080fd5b61236b8482856131bd565b509392505050565b60008135905061238281613a0a565b92915050565b60008135905061239781613a21565b92915050565b6000813590506123ac81613a38565b92915050565b6000815190506123c181613a38565b92915050565b600082601f8301126123d857600080fd5b81356123e8848260208601612335565b91505092915050565b60008135905061240081613a4f565b92915050565b60006020828403121561241857600080fd5b600061242684828501612373565b91505092915050565b6000806040838503121561244257600080fd5b600061245085828601612373565b925050602061246185828601612373565b9150509250929050565b60008060006060848603121561248057600080fd5b600061248e86828701612373565b935050602061249f86828701612373565b92505060406124b0868287016123f1565b9150509250925092565b600080600080608085870312156124d057600080fd5b60006124de87828801612373565b94505060206124ef87828801612373565b9350506040612500878288016123f1565b925050606085013567ffffffffffffffff81111561251d57600080fd5b612529878288016123c7565b91505092959194509250565b6000806040838503121561254857600080fd5b600061255685828601612373565b925050602061256785828601612388565b9150509250929050565b6000806040838503121561258457600080fd5b600061259285828601612373565b92505060206125a3858286016123f1565b9150509250929050565b6000602082840312156125bf57600080fd5b60006125cd8482850161239d565b91505092915050565b6000602082840312156125e857600080fd5b60006125f6848285016123b2565b91505092915050565b60006020828403121561261157600080fd5b600061261f848285016123f1565b91505092915050565b61263181613149565b82525050565b6126408161315b565b82525050565b600061265182612ff1565b61265b8185613007565b935061266b8185602086016131cc565b61267481613398565b840191505092915050565b600061268a82612ffc565b6126948185613018565b93506126a48185602086016131cc565b6126ad81613398565b840191505092915050565b60006126c382612ffc565b6126cd8185613029565b93506126dd8185602086016131cc565b80840191505092915050565b600081546126f6816131ff565b6127008186613029565b9450600182166000811461271b576001811461272c5761275f565b60ff1983168652818601935061275f565b61273585612fdc565b60005b8381101561275757815481890152600182019150602081019050612738565b838801955050505b50505092915050565b6000612775600a83613029565b9150612780826133a9565b600a82019050919050565b6000612798603283613018565b91506127a3826133d2565b604082019050919050565b60006127bb601c83613018565b91506127c682613421565b602082019050919050565b60006127de602483613018565b91506127e98261344a565b604082019050919050565b6000612801601983613018565b915061280c82613499565b602082019050919050565b6000612824600a83613029565b915061282f826134c2565b600a82019050919050565b6000612847606383613029565b9150612852826134eb565b606382019050919050565b600061286a602c83613018565b915061287582613586565b604082019050919050565b600061288d600d83613029565b9150612898826135d5565b600d82019050919050565b60006128b0603883613018565b91506128bb826135fe565b604082019050919050565b60006128d3602a83613018565b91506128de8261364d565b604082019050919050565b60006128f6602983613018565b91506129018261369c565b604082019050919050565b6000612919602e83613018565b9150612924826136eb565b604082019050919050565b600061293c600283613029565b91506129478261373a565b600282019050919050565b600061295f602083613018565b915061296a82613763565b602082019050919050565b6000612982603183613018565b915061298d8261378c565b604082019050919050565b60006129a5602c83613018565b91506129b0826137db565b604082019050919050565b60006129c8602983613018565b91506129d38261382a565b604082019050919050565b60006129eb602f83613018565b91506129f682613879565b604082019050919050565b6000612a0e600a83613029565b9150612a19826138c8565b600a82019050919050565b6000612a31602183613018565b9150612a3c826138f1565b604082019050919050565b6000612a54601e83613018565b9150612a5f82613940565b602082019050919050565b6000612a77601d83613029565b9150612a8282613969565b601d82019050919050565b6000612a9a603183613018565b9150612aa582613992565b604082019050919050565b6000612abd600b83613029565b9150612ac8826139e1565b600b82019050919050565b612adc816131b3565b82525050565b6000612aee82846126b8565b915081905092915050565b6000612b0582856126b8565b9150612b1182846126b8565b91508190509392505050565b6000612b2982886126e9565b9150612b3582876126b8565b9150612b4182866126e9565b9150612b4d82856126b8565b9150612b5982846126b8565b9150612b6482612880565b91508190509695505050505050565b6000612b7e82612768565b9150612b8a82846126b8565b915081905092915050565b6000612ba082612817565b9150612bac82846126b8565b915081905092915050565b6000612bc282612a01565b9150612bce82856126b8565b9150612bd98261283a565b9150612be582846126b8565b9150612bf08261292f565b91508190509392505050565b6000612c0782612a6a565b9150612c1382846126b8565b915081905092915050565b6000612c2982612ab0565b9150612c3582846126b8565b915081905092915050565b6000602082019050612c556000830184612628565b92915050565b6000608082019050612c706000830187612628565b612c7d6020830186612628565b612c8a6040830185612ad3565b8181036060830152612c9c8184612646565b905095945050505050565b6000604082019050612cbc6000830185612628565b612cc96020830184612ad3565b9392505050565b6000602082019050612ce56000830184612637565b92915050565b60006020820190508181036000830152612d05818461267f565b905092915050565b60006060820190508181036000830152612d27818661267f565b9050612d366020830185612ad3565b612d436040830184612628565b949350505050565b60006020820190508181036000830152612d648161278b565b9050919050565b60006020820190508181036000830152612d84816127ae565b9050919050565b60006020820190508181036000830152612da4816127d1565b9050919050565b60006020820190508181036000830152612dc4816127f4565b9050919050565b60006020820190508181036000830152612de48161285d565b9050919050565b60006020820190508181036000830152612e04816128a3565b9050919050565b60006020820190508181036000830152612e24816128c6565b9050919050565b60006020820190508181036000830152612e44816128e9565b9050919050565b60006020820190508181036000830152612e648161290c565b9050919050565b60006020820190508181036000830152612e8481612952565b9050919050565b60006020820190508181036000830152612ea481612975565b9050919050565b60006020820190508181036000830152612ec481612998565b9050919050565b60006020820190508181036000830152612ee4816129bb565b9050919050565b60006020820190508181036000830152612f04816129de565b9050919050565b60006020820190508181036000830152612f2481612a24565b9050919050565b60006020820190508181036000830152612f4481612a47565b9050919050565b60006020820190508181036000830152612f6481612a8d565b9050919050565b6000602082019050612f806000830184612ad3565b92915050565b6000612f90612fa1565b9050612f9c8282613231565b919050565b6000604051905090565b600067ffffffffffffffff821115612fc657612fc5613369565b5b612fcf82613398565b9050602081019050919050565b60008190508160005260206000209050919050565b600081519050919050565b600081519050919050565b600082825260208201905092915050565b600082825260208201905092915050565b600081905092915050565b600061303f826131b3565b915061304a836131b3565b9250827fffffffffffffffffffffffffffffffffffffffffffffffffffffffffffffffff0382111561307f5761307e6132dc565b5b828201905092915050565b6000613095826131b3565b91506130a0836131b3565b9250826130b0576130af61330b565b5b828204905092915050565b60006130c6826131b3565b91506130d1836131b3565b9250817fffffffffffffffffffffffffffffffffffffffffffffffffffffffffffffffff048311821515161561310a576131096132dc565b5b828202905092915050565b6000613120826131b3565b915061312b836131b3565b92508282101561313e5761313d6132dc565b5b828203905092915050565b600061315482613193565b9050919050565b60008115159050919050565b60007fffffffff0000000000000000000000000000000000000000000000000000000082169050919050565b600073ffffffffffffffffffffffffffffffffffffffff82169050919050565b6000819050919050565b82818337600083830152505050565b60005b838110156131ea5780820151818401526020810190506131cf565b838111156131f9576000848401525b50505050565b6000600282049050600182168061321757607f821691505b6020821081141561322b5761322a61333a565b5b50919050565b61323a82613398565b810181811067ffffffffffffffff8211171561325957613258613369565b5b80604052505050565b600061326d826131b3565b91507fffffffffffffffffffffffffffffffffffffffffffffffffffffffffffffffff8214156132a05761329f6132dc565b5b600182019050919050565b60006132b6826131b3565b91506132c1836131b3565b9250826132d1576132d061330b565b5b828206905092915050565b7f4e487b7100000000000000000000000000000000000000000000000000000000600052601160045260246000fd5b7f4e487b7100000000000000000000000000000000000000000000000000000000600052601260045260246000fd5b7f4e487b7100000000000000000000000000000000000000000000000000000000600052602260045260246000fd5b7f4e487b7100000000000000000000000000000000000000000000000000000000600052604160045260246000fd5b6000601f19601f8301169050919050565b7f464952535420574f524400000000000000000000000000000000000000000000600082015250565b7f4552433732313a207472616e7366657220746f206e6f6e20455243373231526560008201527f63656976657220696d706c656d656e7465720000000000000000000000000000602082015250565b7f4552433732313a20746f6b656e20616c7265616479206d696e74656400000000600082015250565b7f4552433732313a207472616e7366657220746f20746865207a65726f2061646460008201527f7265737300000000000000000000000000000000000000000000000000000000602082015250565b7f4552433732313a20617070726f766520746f2063616c6c657200000000000000600082015250565b7f46494c4c20434f4c4f5200000000000000000000000000000000000000000000600082015250565b7f222c20226465736372697074696f6e223a20224120686967686c79206163636c60008201527f61696d656420636f6c6c656374696f6e206f6620737175617265732e222c202260208201527f696d616765223a2022646174613a696d6167652f7376672b786d6c3b6261736560408201527f36342c0000000000000000000000000000000000000000000000000000000000606082015250565b7f4552433732313a206f70657261746f7220717565727920666f72206e6f6e657860008201527f697374656e7420746f6b656e0000000000000000000000000000000000000000602082015250565b7f3c2f746578743e3c2f7376673e00000000000000000000000000000000000000600082015250565b7f4552433732313a20617070726f76652063616c6c6572206973206e6f74206f7760008201527f6e6572206e6f7220617070726f76656420666f7220616c6c0000000000000000602082015250565b7f4552433732313a2062616c616e636520717565727920666f7220746865207a6560008201527f726f206164647265737300000000000000000000000000000000000000000000602082015250565b7f4552433732313a206f776e657220717565727920666f72206e6f6e657869737460008201527f656e7420746f6b656e0000000000000000000000000000000000000000000000602082015250565b7f45524337323155524953746f726167653a2055524920736574206f66206e6f6e60008201527f6578697374656e7420746f6b656e000000000000000000000000000000000000602082015250565b7f227d000000000000000000000000000000000000000000000000000000000000600082015250565b7f4552433732313a206d696e7420746f20746865207a65726f2061646472657373600082015250565b7f45524337323155524953746f726167653a2055524920717565727920666f722060008201527f6e6f6e6578697374656e7420746f6b656e000000000000000000000000000000602082015250565b7f4552433732313a20617070726f76656420717565727920666f72206e6f6e657860008201527f697374656e7420746f6b656e0000000000000000000000000000000000000000602082015250565b7f4552433732313a207472616e73666572206f6620746f6b656e2074686174206960008201527f73206e6f74206f776e0000000000000000000000000000000000000000000000602082015250565b7f4552433732314d657461646174613a2055524920717565727920666f72206e6f60008201527f6e6578697374656e7420746f6b656e0000000000000000000000000000000000602082015250565b7f7b226e616d65223a202200000000000000000000000000000000000000000000600082015250565b7f4552433732313a20617070726f76616c20746f2063757272656e74206f776e6560008201527f7200000000000000000000000000000000000000000000000000000000000000602082015250565b7f557020746f203530206e6674732063616e206265206d696e7465642121210000600082015250565b7f646174613a6170706c69636174696f6e2f6a736f6e3b6261736536342c000000600082015250565b7f4552433732313a207472616e736665722063616c6c6572206973206e6f74206f60008201527f776e6572206e6f7220617070726f766564000000000000000000000000000000602082015250565b7f5345434f4e4420574f5244000000000000000000000000000000000000000000600082015250565b613a1381613149565b8114613a1e57600080fd5b50565b613a2a8161315b565b8114613a3557600080fd5b50565b613a4181613167565b8114613a4c57600080fd5b50565b613a58816131b3565b8114613a6357600080fd5b5056fe3d3d3d3d3d3d3d3d3d3d3d3d3d3d3d3d3d3d3d3d3d3d3d3d3d3d3d3d3d3d3d3d3d3d3d3d3d416e204e465420772f20494420256420686173206265656e206d696e74656420746f2025734142434445464748494a4b4c4d4e4f505152535455565758595a6162636465666768696a6b6c6d6e6f707172737475767778797a303132333435363738392b2fa2646970667358221220837063fd8d48fee4149a7578da45229f27fc848cd9c8e5f3337db2acf472b45b64736f6c634300080400333c73766720786d6c6e733d27687474703a2f2f7777772e77332e6f72672f323030302f73766727207072657365727665417370656374526174696f3d27784d696e594d696e206d656574272076696577426f783d273020302033353020333530273e3c7374796c653e2e62617365207b2066696c6c3a2077686974653b20666f6e742d66616d696c793a2073657269663b20666f6e742d73697a653a20323470783b207d3c2f7374796c653e3c726563742077696474683d273130302527206865696768743d2731303025272066696c6c3d2727202f3e3c7465787420783d273530252720793d273530252720636c6173733d27626173652720646f6d696e616e742d626173656c696e653d276d6964646c652720746578742d616e63686f723d276d6964646c65273e",
  "linkReferences": {},
  "deployedLinkReferences": {}
}